:020000040000FA
:10000000581B0020B50100003D290000BF01000081
:1000100000000000000000000000000000000000E0
:10002000000000000000000000000000C10100000E
:100030000000000000000000C3010000C501000036
:10004000C7010000C7010000C7010000C701000090
:10005000C7010000C7010000C7010000C701000080
:10006000C7010000C7010000C7010000C701000070
:10007000C7010000C7010000C7010000C701000060
:10008000C7010000C701000091490000C70100003E
:10009000C7010000C7010000C7010000C701000040
:1000A000910B0000C7010000C7010000C70100005C
:1000B000C7010000C7010000C7010000C701000020
:1000C00000F002F800F04BF80CA030C808382418F3
:1000D0002D18A246671EAB4654465D46AC4201D180
:1000E00000F03DF87E460F3E0FCCB6460126334267
:1000F00000D0FB1AA246AB46334318475C610000B0
:100100007C6100000023002400250026103A01D362
:1001100078C1FBD8520700D330C100D50B607047BF
:1001200010B5642902D100F02FF910BD752902D154
:1001300000F02AF910BD782902D100F05BF910BD5A
:10014000002010BD1FB500F08BFC04000020002132
:1001500006F03EF8401C60601FBD10B510BD00F0F9
:1001600087FC1146FFF7EEFF05F0E2FD00F09FFC73
:1001700003B4FFF7F2FF03BC00F0E6FC70B50546E0
:100180000C46164602E00FCC0FC5103E102EFAD2D8
:10019000082E02D303CC03C5083E042E07D301CC9E
:1001A00001C5361F03E021782970641C6D1C761E82
:1001B000F9D270BD0748804707480047FEE7FEE7D1
:1001C000FEE7FEE7FEE7FEE704480549054A064B61
:1001D0007047000025370000C1000000580B0020C8
:1001E000581B00205813002058130020FEB5054668
:1001F00010460C46184373D0AE468C460020AD1A0C
:1002000001469C4167D36646002701243D46B61A45
:100210009D4102D313463A462124654676462F0473
:10022000360C3E432D0CB61A9D4104D3150C1B040D
:100230002B4312041034654676462F06360A3E4399
:100240002D0AB61A9D4104D3150E1B022B43120230
:100250000834654676462F0736093E432D09B61AFF
:100260009D4104D3150F1B012B431201241D65462C
:100270007646AF07B6083E43AD08B61A9D4104D393
:10028000950F9B002B439200A41C65467646EF0712
:1002900076083E436D08B61A9D411AD392185B4109
:1002A000641C16E00018764665464941B71A9D4120
:1002B0000191009009D36046B11A98418E46844658
:1002C000009801990025401C6941DD0752082A4326
:1002D0005B08641EE6D57246634603B0F0BDFFE7D7
:1002E00000200146C046C0462A462346F5E710B521
:1002F000044600F023FB0068005D000704D5DF2CF6
:1003000002D02046203810BD204610BD0FB41CB5C9
:10031000084B06AA7B4469460090059800F073FBE1
:1003200004460020694600F081FB20461CBC08BC46
:1003300004B018471507000070B5044685690068C9
:10034000C10601D5302600E02026C00707D070BDC9
:1003500062683046A1689047206A401C20626D1E8A
:10036000F6D570BD70B5044685690078C00707D121
:1003700070BD6268A16820209047206A401C2062FE
:100380006D1EF6D570BD0000F7B500257529106803
:10039000009914A611D0C046C046002802DA404297
:1003A00011A608E0009909688A0701D50FA602E0A6
:1003B000490704D50EA6012501E0C046C046009FAE
:1003C0000024243704E000F036FB30313955641C3A
:1003D0000028F8D12B4632462146009800F0B6FAA4
:1003E000FEBD0000000000002D0000002B000000FA
:1003F0002000000070B504460D4621461068C04636
:10040000C0462188090502D50F4A7A4402E00E4A07
:100410007A440E3223460021243305E00607000902
:10042000360F965D5E54491C0028F7D120780023D2
:10043000000705D5702D03D0002901D00223113209
:10044000204600F083FA70BD115E0000F3B504464B
:10045000002081B020622046E1688847002872D0E1
:10046000252802D06268A168ABE0594F00267F447E
:100470002046E16888472028054608DB312D06D252
:10048000781920380078002801D00643F0E7B0073B
:1004900001D5042086430020E0610746A0612A2D93
:1004A0000AD0284605F028F9002827D0B8000019FE
:1004B000303D0090856119E00298BA00121902C817
:1004C000916102902046E1688847012F054617D1C7
:1004D000E06900281FDA202086431CE000980A21EA
:1004E0008069484300994019303888612046E168A6
:1004F0008847054605F000F90028EFD1012F0AD002
:100500002E2D08D12046E168884705462020064365
:100510007F1C022FC3DBA069002803DA4042A061E0
:1005200001200643F00701D0102086436C2D0BD02C
:10053000682D09D04C2D3CD06A2D38D0742D38D080
:100540007A2D36D016E040E0E1682F4620468847F5
:10055000B842054609D16C2F29D001208002E168FC
:10056000064320468847054604E06C2F1DD0FF2037
:1005700001300643002D28D028464138192803D8D9
:100580000120C00206432035204626602946029AF3
:100590001646FFF7C5FD002810D001280BD0F61D28
:1005A000F008C0000830029055E74020E1E78020C5
:1005B000D5E70020D3E7361D02964CE7626828464F
:1005C000A1689047206A401C44E7206AFEBD0000F5
:1005D000D55D0000034610B50B439B070FD1042ADD
:1005E0000DD308C810C9121FA342F8D018BA21BAF7
:1005F000884201D9012010BD0020C04310BD002A4F
:1006000003D0D30703D0521C07E0002010BD0378AD
:100610000C78401C491C1B1B07D103780C78401C2C
:10062000491C1B1B01D1921EF1D1184610BD0000C0
:1006300030B5441C03E00178401C00290DD081072F
:10064000F9D10B4BDD0104C8D11A91432940FAD0EE
:10065000001B0A0603D0C01E30BD001B30BD0A04BB
:1006600001D0801E30BD0902FCD0401E30BD00000C
:1006700001010101F8B5042A2CD3830712D00B78AD
:10068000491C0370401C521E83070BD00B78491C79
:100690000370401C521E830704D00B78491C037062
:1006A000401C521E8B079B0F05D0C91ADF00202368
:1006B000DE1B08C90AE0FFF761FDF8BD1D4608C949
:1006C000FD401C46B4402C4310C0121F042AF5D232
:1006D000F308C91A521EF0D40B78491C0370401C51
:1006E000521EEAD40B78491C0370401C012AE4D442
:1006F00009780170F8BDD2B210B513029A1813042C
:100700009A1800F00EF810BD01E004C0091F04297A
:10071000FBD28B0701D50280801CC90700D0027074
:10072000704700290BD0C30702D00270401C491E3D
:10073000022904D3830702D50280801C891EE3E7C7
:100740000022EEE70022DFE7F8B507460B46394600
:100750001943890713D1164CE601042A0FD302CBA3
:100760000D1B8D43354202D102C0121FF5E7CBB2FB
:100770000370401C521E002B13D0090AF7E7002A11
:1007800014D01978521E5B1C0170401C002908D03F
:10079000002A0BD01978521E5B1C0170401C0029E6
:1007A000EDD1002A02D01146FFF7CAFF3846F8BD46
:1007B000010101018178C27803780904120611430E
:1007C00042781002184308437047020A08704A70C2
:1007D000020C8A70020ECA707047002203098B4215
:1007E0002CD3030A8B4211D300239C464EE00346D0
:1007F0000B433CD4002243088B4231D303098B4284
:100800001CD3030A8B4201D394463FE0C3098B42B9
:1008100001D3CB01C01A524183098B4201D38B0112
:10082000C01A524143098B4201D34B01C01A5241B5
:1008300003098B4201D30B01C01A5241C3088B42FA
:1008400001D3CB00C01A524183088B4201D38B00E5
:10085000C01A524143088B4201D34B00C01A524187
:10086000411A00D201465241104670475DE0CA0F5E
:1008700000D04942031000D34042534000229C461E
:1008800003098B422DD3030A8B4212D3FC22890128
:1008900012BA030A8B420CD3890192118B4208D3FE
:1008A000890192118B4204D389013AD0921100E060
:1008B0008909C3098B4201D3CB01C01A5241830974
:1008C0008B4201D38B01C01A524143098B4201D3A1
:1008D0004B01C01A524103098B4201D30B01C01ACC
:1008E0005241C3088B4201D3CB00C01A5241830846
:1008F0008B4201D38B00C01A5241D9D243088B429C
:1009000001D34B00C01A5241411A00D2014663463E
:1009100052415B10104601D34042002B00D54942A2
:10092000704763465B1000D3404201B50020C046CB
:10093000C04602BD704770477047000010B500F018
:100940008FF8001D10BD00BF89580000FFB5044698
:100950000D4681B0243000902168880604D510220D
:10096000E0699143216000E00120A84201DD471BBE
:1009700000E000270498A1697A191018081AA061EC
:100980002078C00602D42046FFF7D6FC002608E0F7
:1009900003986268A168805D9047206A401C761CBD
:1009A000206204988642F3DB2078C0060AD52046F0
:1009B000FFF7C2FC06E06268A16830209047206A19
:1009C000401C206238467F1E0028F4DC07E00098B7
:1009D0006268A168405D9047206A401C20622846FA
:1009E0006D1E0028F3DC2046FFF7BCFC20780006D3
:1009F00002D5022005B0F0BD0120FBE701694A1CC9
:100A000002610878704700B58FB00291002105910E
:100A10000549019379440391114604906846FFF714
:100A200015FD0FB000BD0000E5FFFFFF0A68107064
:100A3000521C0A60704701468008081A0209101803
:100A4000020A1018020C1018C00882001218520076
:100A5000891A01E0401C0A390A29FBD270470000BC
:100A600000487047140B002000487047F40A00202B
:100A70007546FFF7F9FFAE46050069465346C008C4
:100A8000C000854618B020B5FFF79EFB60BC00276C
:100A90004908B6460026C0C5C0C5C0C5C0C5C0C54A
:100AA000C0C5C0C5C0C5403D49008D46704710B5A2
:100AB0000446C046C0462046FFF75AFB10BD000062
:100AC000024670B50A4392072AD11E4DEE0104C8B2
:100AD00008C9541B9443344017D0D0B2D9B2401A3D
:100AE0002106014310D190B299B2401A210401436A
:100AF0000AD110021902000A090A401A2102014310
:100B000002D1100E190E401A70BD9A42DFD010BAF1
:100B100019BA884201D9012070BD0020C04370BDC0
:100B200002780B78401C491C002A09D09A4207D150
:100B300002780B78401C491C002A01D09A42EFD061
:100B4000D01A70BD0101010101491820ABBEFEE7BA
:100B500026000200704730B58C180278401C13073D
:100B60001B0F01D10378401C120906D10278401CEA
:100B700003E00578401C0D70491C5B1EF9D101E0B3
:100B80000B70491C521EFBD1A142E6D3002030BDA0
:100B900000BF01200149086100BF704700B4014057
:100BA00010B50020002806D001210904401A1BD0EE
:100BB000401A51D134E0494849490860002001F009
:100BC00091FB48480068000C46490988C94389B22E
:100BD000884202D14348006800E030204406640E99
:100BE000204601F08BFB50E03F483D490860002063
:100BF00001F078FB3B484038C06B000C3949403964
:100C0000898FC94389B2884203D136484038C06BC6
:100C100000E02A204406640E204601F06FFB34E019
:100C200032482F490860002001F05CFB2D48403815
:100C3000806B000C2B494039098FC94389B2884227
:100C400003D128484038806B00E027204406640E1A
:100C5000204601F053FB18E020482149086000209D
:100C600001F040FB1F480068000C1E490988C94379
:100C700089B2884202D11B48006800E03020440657
:100C8000640E204601F03AFB00BF00BF0020184967
:100C9000C968C908C9000143154AD16000BF00BF37
:100CA0001146C9680722120291430143104AD160DC
:100CB00000BF00BF1146C9680722120491430143D7
:100CC0000B4AD16000BF00BF1146C9680722D20499
:100CD00091430143064AD16000BF10BD00127A0063
:100CE0000000002040FBFF1F0024F40000366E01CE
:100CF0000002004070B506460C4680202040802847
:100D000007D16106490E282041433046D8300D18DE
:100D100009E06006400E282148433146CC31992233
:100D20009200891845186006400E287080202040E7
:100D3000C00968702946304604F00DF9002070BDE6
:100D400070B506460C4680202040802807D16106F9
:100D5000490E282041433046D8300D1807E028209E
:100D600060433146CC319922920089184518002001
:100D7000A8706006400E287080202040C00968706E
:100D80002946304604F0BEF8002070BD70B5054617
:100D90000C4680202040802805D16106490E284657
:100DA00004F004FB02E0284604F0DAFA002070BDEB
:100DB000FFB581B006460D461F468020284080289A
:100DC00007D16906490E282041433046D8300C1817
:100DD00009E06806400E282148433146CC3199226B
:100DE0009200891844186806400E20708020284020
:100DF000C00960700398A060E7706078002801D097
:100E00002078E080022F01D1002020712146304659
:100E100004F018F8002005B0F0BDFFB581B005461C
:100E20000E4617467006400E282148432946CC310D
:100E30009922920089184418E760049860610020A4
:100E4000A06160707006400E2070E878012800D123
:100E500027612078002804D12146284603F035FF79
:100E600003E02146284604F0F7F8002005B0F0BD65
:100E700018B5002200927F231B01009A9A430B01B0
:100E80007F24240123401A43009202691268009BC8
:100E90001A4303691A6018BD70B506460C468020D7
:100EA0002040802807D16106490E28204143304662
:100EB000D8300D1807E0282060433146CC31992204
:100EC0009200891845180120A8706006400E28700D
:100ED00080202040C00968702946304604F088F818
:100EE000002070BDFFB581B007460D461646690665
:100EF000490E282041433846D8300C180120607034
:100F00006806400E2070E66026610020A06104980B
:100F100060612078002804D12146384603F0D5FED0
:100F200003E02146384604F097F8002005B0F0BDF4
:100F30007CB50546284603F08DFE574CE868C0682E
:100F400000900F2189020098884300900098E9687A
:100F5000C8600120A8704020A880504884420BD36C
:100F6000A010844208D20F218902009888430721EB
:100F7000C902401800907FE0494884420BD3494899
:100F8000844208D20F218902009888430D218902EA
:100F90004018009070E0434884420BD3424884429A
:100FA00008D20F21890200988843032109034018C1
:100FB000009061E03C4884420BD33C48844208D214
:100FC0000F218902009888430B2189024018009064
:100FD00052E0364884420BD33548844208D20F2170
:100FE0008902009888430521C9024018009043E017
:100FF0002F4884420BD32F48844208D20F21890204
:1010000000988843092189024018009034E029485B
:1010100084420BD32848844208D20F2189020098C9
:101020008843012149034018009025E0224884426A
:101030000BD32248844208D20F21890200988843AA
:10104000072189024018009016E01C4884420BD307
:101050001B48844208D20F2189020098884303214B
:10106000C9024018009007E00F21890200988843C8
:1010700005218902401800900098E968C8600020A6
:10108000019001214903019888434018019001987B
:10109000E968486101207CBD0090D003C0E1E40014
:1010A0000024F400E0EC040100C31801002D31011C
:1010B00040A44C0100366E0140E2950180C3C90195
:1010C00060600B02F8B50546002400200090284619
:1010D00004F0C4F9064688E0F007C00F00287DD070
:1010E000E1B2284600F010FB00900098C007C00F46
:1010F000002825D00127A7402869406BB8432969FB
:10110000486300200090009840084000401C009078
:10111000A20028461430805800998160E1B2354819
:101120000068426828469047E878012808D1002CDA
:1011300006D1CD20405D042802D1284603F06AFE86
:1011400000980007C00F00280CD000200090082154
:101150000098884308300090A20028461430805838
:10116000009981600098C006C00F00280CD00020B4
:10117000009010210098884310300090A20028466B
:10118000143080580099816000984006C00F0028F4
:101190000CD00020009040210098884340300090FF
:1011A000A20028461430805800998160009880077A
:1011B000C00F00280CD00020009002210098884326
:1011C000801C0090A200284614308058009981604D
:1011D00000980006C00F002805D000E003E021467B
:1011E000284600F0A4FA641C7608002E00D073E7AD
:1011F0000120F8BD340000207CB504460025002005
:101200000190204604F032F9064676E0F007C00F60
:10121000002870D0E9B2204604F030F9019001981E
:10122000C007C00F00283DD0002001900198400861
:101230004000401C0190AA0020465030805801997F
:101240008160E07801281BD1A90020465030405829
:1012500000690090282068432146CC3199229200F1
:1012600089184018806800994903490B421A2820C0
:1012700068432146CC3199239B00C91840188261EC
:10128000E9B220480068026820469047E0780128CB
:1012900008D1002D06D1CD20005D052802D12046C1
:1012A00003F0B8FD01988007C00F00280CD0002083
:1012B0000190022101988843801C0190AA002046D9
:1012C000503080580199816001980007C00F0028B4
:1012D00011D00C48006881682046884700200190A2
:1012E00008210198884308300190AA002046503018
:1012F0008058019981606D1C7608002E86D10120EE
:101300007CBD0000340000203EB50446A07A0028D1
:101310000FD0C8200059006800900221009888432F
:1013200000900098400840000090C82000590099A3
:10133000016000200190019840084000401C01908D
:10134000206940680199884321694860094800681C
:10135000816920468847002002900298400040089A
:101360000121C907401802900298E16848610120F4
:101370003EBD0000340000207CB5044600200190F2
:1013800010210198884310300190E068806901992C
:101390008843E1688861E068006A0090009800076F
:1013A000000F282148432146CC3199229200891808
:1013B00045180098C002000F030004F08FF90730B1
:1013C00005061F20302130002AE000984004400D1F
:1013D000002812D000984004420D2046E96804F02D
:1013E00058F8E86800994904490D4018E860A86970
:1013F00000994904490D4018A86111E010E00FE080
:1014000008222046CC300B494118204604F041F810
:10141000A86900994904490D4018A86100E000BF7F
:1014200000BFE068806901990843E1688861012094
:101430007CBD0000BC04000038B5044608480068C4
:10144000C168204688470020009008210098884302
:10145000083000900098E1684861012038BD000024
:10146000340000201FB5044600210091CE20015D0C
:1014700000912448006841692046884720698068B7
:101480000190002003900121C9020398884340186D
:1014900003900398E1684861A07A00282ED0019853
:1014A000C007C00F002829D0D120005D012825D118
:1014B00068460078032821D1002002900298400855
:1014C0004000401C0290C820005900680299014366
:1014D000C82000590160022102988843801C0290B4
:1014E000C8200059006802990143C82000590160D2
:1014F000054800690621084303490861012004B03A
:1015000010BD00003400002000ED00E030B587B0D1
:1015100004460020029006900590049003900190EC
:10152000029840084000401C0290206940680299DF
:101530008843216948600021204603F037FF0025D9
:101540000BE0FF21AA002046143080588160AA00D9
:1015500020465030805881606D1C6078A842F0D8D9
:101560000021C943206981610698000C0004401CD9
:101570000690069880B20121090440180690069949
:101580002069C161082105988843083005900598B5
:1015900040084000401C0590022105988843801CAB
:1015A0000590059920694161049840084000401C5D
:1015B000049008210498884308300490022104987C
:1015C0008843801C049004992069016120690068A7
:1015D00003907F21090103988843039003992069B0
:1015E0000160204603F016FC002001900121090350
:1015F00001988843401801900198E16848610448C7
:101600000068016920468847012007B030BD00000E
:1016100034000020F8B506460F463946304603F040
:1016200054FF0121CE2081550021D0208155002575
:1016300011E02820294641433046D8300C180120BB
:1016400060702570E5800020E0701020A060002010
:10165000E06060616D1C7078A842EAD8002512E055
:10166000282068433146CC319922920089184418C9
:10167000002060702570E580E0701020A0600020E0
:10168000E06060616D1C7078A842E9D8304603F0D4
:10169000D1FA304603F0CFF90021304603F05DFF68
:1016A000304603F0D3F9304603F048FEF8BD0000A1
:1016B00038B504460020009007480068C1692046FC
:1016C0008847012109050098884340180090009838
:1016D000E1684861012038BD3400002038B5044677
:1016E0000020009007480068016A204688470121D1
:1016F000490500988843401800900098E1684861C7
:10170000012038BD3400002070B5024615692B69F0
:1017100015696C6B2546CD40ED072D0E2B438E00D1
:1017200015461435AD59AD681D40284670BDFEB54F
:1017300006460F4600BF002002902820394641434C
:101740003046D8300C18A1696069451AA068A842D3
:1017500000D2A568E81C80080190B900304614301A
:1017600040588069029029E0A1696069451AA06823
:10177000A84200D2A568E81C80080190ABB2FAB27A
:101780003046E16803F0F2FEE0684019E060A069CD
:101790004019A061B9003046143040588069029069
:1017A000A1696069884209D12178012088400090B0
:1017B0003069416B0098814330694163029881B27E
:1017C0000198814206D36169A069884202D26069AA
:1017D0000028C9D10120FEBD10B5044603E07D20DC
:1017E000C00000F005F82046641E0028F7D110BDA7
:1017F00070B506460F480068314603F057FF0446AF
:101800000D4A0023FEF7F2FC064601200006864240
:1018100000D900E030460646701E084948610020A5
:10182000886100BF05480069C003C00F0028F9D0D7
:1018300070BD00000000002040420F0000E000E00A
:1018400000B585B008200090012001900020039091
:10185000029004906946184800F0ECFB00F06CF828
:10186000FF200130009002200190002003900290A0
:10187000012004906946104800F0DCFB0120400282
:1018800000900220019000200390012004906946FE
:10189000094800F0CFFB0120800200900220019057
:1018A000002003900290012004906946024800F055
:1018B000C1FB05B000BD0000800C004000B589B040
:1018C0001C4800F025FD684600F052FEFF20013064
:1018D0000290002001900390049005901020079042
:1018E0000020089006906946124800F04FFD00BFA6
:1018F00010484068042188430E49486000BF00BF7B
:1019000008464068042108430A49486000BF00BFF8
:1019100008464068012108430649486000BF00BFEF
:101920000820886000BF00BF0420886000BF09B0A5
:1019300000BD000000080140082003494969014337
:10194000014A516100BF7047800C004008200349E4
:1019500089690143014A916100BF7047800C0040D2
:1019600010B500F05CF90446200C852801D1012057
:1019700010BD0020FCE70000F3B5FFB09AB00F46A1
:10198000FFF7EEFF002802D17FB01CB0F0BD9998A0
:10199000002801D0002F01D10020F5E7FF20013001
:1019A000874200D90746FF2129314FA8FEF7CAFE1A
:1019B000FF2229324FA9002000F011F900204E909B
:1019C00000264FA804F020F8002807D059A84E9010
:1019D000579EFF200130864200D9064600244E98CB
:1019E000002824D0002E22D0002000210EE04E9AA4
:1019F000525C0A2A09D1A20049AB98504A1C121A1B
:101A0000A30044ADEA50641C481C491CB14201D2F9
:101A1000052CECD3B04209D2052C07D2A10049AA6B
:101A20005050311AA20044AB9950641C00BFFF21F2
:101A3000013104A8FEF786FE002003900297FF20E4
:101A40000130029F874200D9029004A8029A999916
:101A5000FEF710FE0298039000251EE0A80044A99E
:101A6000095803980818FF210131884200D918E06D
:101A7000A80044AB1A58A80049AB1B584E98191837
:101A800004AB039818180190FEF7F4FDA80044A9D0
:101A900009580398081803906D1CA54201D2042D23
:101AA000DCD300BF04A902A0039A00F033F96BE76E
:101AB00066696C652E74787400000000FFB59FB0F5
:101AC00004461D46E00F06900698002801D06042AB
:101AD00000E0204606B237113007000F0590134989
:101AE000059848430490069800280AD00498019766
:101AF000009502900EA107A8219B209AFEF706FCF4
:101B000009E0049801970095029014A107A8219B71
:101B1000209AFEF7FBFB07A8FEF78AFD014603901B
:101B200007A8FFF729FF23B0F0BD000071020000F5
:101B3000253032753A253032753A253032752020FD
:101B400054656D70657261747572653A202D2564F7
:101B50002E2530346420430D0A00000025303275F4
:101B60003A253032753A25303275202054656D7033
:101B7000657261747572653A2025642E253034646F
:101B800020430D0A0000000070B504460E461546BD
:101B9000FF200130854200DD054600F0B2F800F07C
:101BA0007FF8FFF7D3FE022001F016FD2102080E98
:101BB00001F012FD2104080E01F00EFDE0B201F06B
:101BC0000BFD002304E0F05C01F006FD581C83B21D
:101BD000AB42F8DBFFF7B0FE00F062F870BD70B505
:101BE00003460D461646FFF7B1FE032001F0F4FC54
:101BF0001902080E01F0F0FC1904080E01F0ECFCCB
:101C0000D8B201F0E9FC002404E0FF2001F0E4FC7C
:101C10002855641CB442F8D3FFF78EFE70BD00B5A2
:101C20000023FFF793FE9F2001F0D6FC002001F077
:101C3000D3FC0304002001F0CFFC0002034300208A
:101C400001F0CAFC0343FFF777FE184600BD00B55C
:101C5000FFF77CFE052001F0BFFC002001F0BCFC7A
:101C60000346FFF769FE184600BD10B5044600F0B4
:101C700048F800F015F8FFF769FE202001F0ACFCF1
:101C80002102080E01F0A8FC2104080E01F0A4FCBA
:101C9000E0B201F0A1FCFFF74FFE00F001F810BD2B
:101CA00008B508E00020009002E00098401C009079
:101CB00000986428F9DBFFF7CAFFC007C00F0028AF
:101CC000F0D108BDFCB506460F46154616E0F0B249
:101CD0000190FF2101310198081A00900098854277
:101CE00001D2284600E0009884B2224639463046A8
:101CF000FFF74AFF36193F192D1B00BF002DE6D113
:101D0000FCBD00B5FFF722FE062001F065FCFFF7E1
:101D100013FE00BD70B5CAB004460E461546FFF767
:101D20001FFE002801D14AB070BDFF21293168464D
:101D3000FEF708FD002C08D02078002805D01F22CF
:101D400021466846FEF700FD04E01F220FA1684609
:101D5000FEF7FAFCFF200130854200D905460895C0
:101D600000200990002E06D0002D04D02A463146CE
:101D70000AA8FEF77FFC0020FFF777FFFF22293239
:101D800069460020FFF79EFF0120CCE766696C657D
:101D90002E74787400000000F8B504460D4616460F
:101DA0001F463B46324629462046FFF787FEF8BDD0
:101DB00000B585B014216846FEF7C4FC0120C002BE
:101DC000009002200190002002900390694607488D
:101DD00000F030F9042006490968090909010143A6
:101DE000034A116000BF05B000BD0000C00C0040F8
:101DF000000E0040F8B50E48046845688668C7685C
:101E000008220C49204600F017F808220949103131
:101E1000284600F011F8082206492031304600F02B
:101E20000BF8082203493031384600F005F8F8BDB8
:101E300080FEFF1F7C00002030B50B46002100BF54
:101E400012E0040F0A2C04D2040F30344D005C550C
:101E500003E0040F37344D005C55000100254C00B1
:101E6000641C1D554C1CE1B29142EADB30BD000000
:101E700010B5024600BF4448824201D1012000E073
:101E80000020002801D100BFFEE700BF00BFC868E6
:101E9000002808D0C868022805D0C868032802D0E6
:101EA000C868012801D1012000E00020002801D1EC
:101EB00000BFFEE700BF00BF344B0868984201D85E
:101EC000012000E00020002801D100BFFEE700BF94
:101ED00000BF2E4B4868984201D8012000E0002046
:101EE000002801D100BFFEE700BF00BF88680128BD
:101EF00002D08868002801D1012000E000200028DD
:101F000001D100BFFEE700BF0120214B5B6B034303
:101F10001F4C636300BFC8681D4B40331B6B9B089D
:101F20009B0003431A4C4034236300BF1020234618
:101F30001B6B0343236300BF0868936A906200BF72
:101F400000BF106802239843106000BF4868D36A3E
:101F5000D06200BF8868012806D100BF10688023C6
:101F60001843106000BF06E000BF1068802398434C
:101F7000106000BF00BF00BF5069012318435061CB
:101F800000BF012010BD000000B40140FFFF0000B1
:101F90000002004000B585B014216846FEF7D2FB70
:101FA000684600F055F901200290019019491A483D
:101FB00000F032F917491848403000F02DF9154962
:101FC0001548803000F028F914491348C03000F05B
:101FD00023F96946104800F02DF869460E48403054
:101FE00000F028F869460C48803000F023F8694674
:101FF0000948C03000F01EF8FF2081300090022018
:1020000001900120039069460348C03000F012F8A7
:1020100005B000BDFFFF0000000C00407FFE000087
:10202000012252021258CBB21A4301235B021A500A
:1020300070470000F0B502460B460024002100BFA7
:10204000604882420BD05F484030824207D05D48F2
:102050008030824203D05B48C030824201D10120EF
:1020600000E00020002801D100BFFEE700BF00BF54
:102070001868002805D9544D1868A84201D80120D5
:1020800000E00020002801D100BFFEE700BF00BF34
:102090005868032808D05868002805D058680128D7
:1020A00002D05868022801D1012000E00020002859
:1020B00001D100BFFEE700BF00BF9868012802D031
:1020C0009868002801D1012000E00020002801D1FB
:1020D00000BFFEE700BF00BFD868002802D0D86864
:1020E000012801D1012000E00020002801D100BF1B
:1020F000FEE700BF8020354DAD6A0543334EB56223
:1021000000BF58E00125A540186828400146002975
:1021100050D09868002806D100BF90688DB2A843BF
:10212000906000BF06E000BF90688DB228439060C9
:1021300000BF00BFD868002806D000BF50688DB22D
:102140002843506000BF06E000BF50688DB2A8432E
:10215000506000BF00BF5868032806D100BF906AD6
:102160008DB22843906200BF00BF5868022809D191
:102170001869012806D100BF106A8DB22843106289
:1021800000BF00BF5868002806D100BF10688DB29C
:102190002843106000BF00BF5868D5680E464E4304
:1021A0007700F619B5430E464E4346433543D56096
:1021B00000BF00BF641C1868E0400028A2D10120C5
:1021C000F0BD0000000C0040FFFF000000020040D6
:1021D0000246D0698BB218408BB2984201D10120DF
:1021E00070470020FCE782698BB21A438261704716
:1021F00082698BB21A438261704782698BB21A433B
:102200008261704742698BB21A43426170474269EA
:102210008BB21A434261704742698BB21A434261E2
:102220007047012252021258520052080A430123F9
:102230005B021A50704710B501235B021B580C0259
:10224000A3430C465443234301246402235010BD8E
:102250000449016000214160012181600021C160C9
:1022600001617047FFFF000081607047024690687F
:10227000CBB21840884201D1012070470020FCE712
:102280000249C9698143014AD16170474002004057
:102290000249C9690143014AD161704740020040C7
:1022A0000348C0680121490608430149C8607047D6
:1022B000000200400249C96A0143014AD1627047E5
:1022C000400200400249096B8143014A1163704793
:1022D000000200400249096B0143014A1163704743
:1022E00000020040044909690F221204914301438E
:1022F000014A11617047000000020040034949692A
:10230000C909C9010143014A5161704700020040F7
:1023100010B5044600BF1948844202D018488442D0
:1023200001D1012000E00020002801D100BFFEE71C
:1023300000BF00BF13481449086100BF0F48844222
:1023400009D14015FFF7A4FF6015FFF799FF0120A1
:10235000FFF7B8FF0AE001208002FFF799FF012094
:102360008002FFF78DFF0220FFF7ACFF00BF05489A
:10237000C0430549086100BF012010BD008C014029
:1023800000080140DF9B57134002004070B505462E
:102390000C4600BF7448854202D07448854201D182
:1023A000012000E00020002801D100BFFEE700BFAF
:1023B00000BFA068002804D0FF210131A068884236
:1023C00001D1012000E00020002801D100BFFEE77C
:1023D00000BF00BFA069002802D0A069022801D177
:1023E000012000E00020002801D100BFFEE700BF6F
:1023F00000BF206A002802D0206A042801D10120F1
:1024000000E00020002801D100BFFEE700BF00BFB0
:10241000E06800280DD001214902E068884208D018
:102420004900E068884204D003214902E0688842FC
:1024300001D1012000E00020002801D100BFFEE70B
:1024400000BF00BFE069002814D0E069082811D05F
:10245000E06910280ED0E06918280BD0E069202828
:1024600008D0E069282805D0E069302802D0E0696A
:10247000382801D1012000E00020002801D100BF50
:10248000FEE700BF00BF6069002802D06069012834
:1024900001D1012000E00020002801D100BFFEE7AB
:1024A00000BF00BF2069002802D02069022801D1A6
:1024B000012000E00020002801D100BFFEE700BF9E
:1024C0002948854203D10120FFF704FF02E00220E2
:1024D000FFF700FFA0696968022291430143696028
:1024E00000BFA0682968D20191430143296000BF61
:1024F000E0692968382291430143296000BF206ABE
:102500002968042291430143296000BFE06869689B
:102510000322520291430143696000BF6069296848
:10252000490849000143296000BF60686968FF22CB
:10253000013291430143696000BF2069296802228A
:1025400091430143296000BF20686968802291435C
:102550000143696000BF00BF6868012108436860EB
:1025600000BF012070BD0000008C01400008014048
:1025700002218161C90181601021C16100210162D4
:10258000C1604161416001610160704710B586B072
:102590000524142101A8FEF7D5F80120400301907D
:1025A00001200290039004900020059001A90E489C
:1025B000FFF740FD0120800301900120029003906D
:1025C00004900020059001A90748FFF733FD012181
:1025D00049030548FFF70CFE012189030248FFF774
:1025E00007FE06B010BD0000000C004010B504202E
:1025F0000C49896A01430B4A916200BF00200A49D5
:10260000096B490A49020143074A116300BF0420CC
:102610000449896A8143034A916200BFFFF7BAFC0B
:1026200010BD0000000200400010014070477047DC
:1026300010B504460F48007B00280BD10D48806878
:10264000002807D00C480078002803D1022120463A
:10265000FEF722FC82212046FEF71EFC0648007889
:10266000022805D11F23034A02212046FEF7D5FB8D
:1026700010BD000084090020DB00002010B50446D6
:102680002B4840682B4948602948806888600221AF
:10269000204601F004FB1F2810D125480068264978
:1026A00088420BD12248407B012807DC2048807BF0
:1026B000012803DB1E48807B10280CDD1C49487B69
:1026C0002022052100F062FE02201C4908702046ED
:1026D000FFF7AEFF2BE01648417B02460F32204643
:1026E00000F0CCFB002803DA2046FFF7A1FF1EE034
:1026F0001348007802281AD011480078012816D013
:102700000F480078032812D00E480088002806DD04
:102710000C4802880C49204600F0E2F807E009481E
:102720000088002803D10021204600F0B9F810BD30
:1027300084090020A409002055534243DB000020F7
:10274000DA000020D80000208407002070B505467C
:102750000C460C480078022807D182212846FEF753
:102760009BFB0020074908700BE080202040802858
:1027700007D104480078012803D00121284600F041
:102780008FF870BDDB00002070B504460D46104880
:102790000078022804D0032811D0042814D10DE0B9
:1027A0000C48417B02460F32204600F067FB0028B0
:1027B00003DA0121204600F073F806E000BF002193
:1027C000204600F06DF800E000BF00BF70BD0000C3
:1027D000DA0000208409002070B504460D460E483A
:1027E0000078002802D0012812D103E02046FFF72C
:1027F00045FF0EE00948417B02460F32204600F0BB
:102800003DFB002803DA0121204600F049F800E0F2
:1028100000BF00BF70BD0000DA0000208409002066
:102820000021014A11707047DA00002010B50446FB
:1028300000200C4908700C4908700C4800680168B9
:102840000020884702212046FEF7A0FA8221204678
:10285000FEF79CFA1F23064A02212046FEF7DDFA06
:1028600010BD0000DA000020DB000020780100200D
:102870008409002010B50446002006490870012094
:10288000054908701F23054A02212046FEF7C5FAB4
:1028900010BD0000DA000020DB00002084090020C9
:1028A00070B505460C460A480A4908600846047394
:1028B0000020094908700D23064A82212846FEF7A8
:1028C00011FB1F23054A02212846FEF7A6FA70BD18
:1028D00055534253A4090020DA0000208409002047
:1028E00070B506460D4614460C488068A04202D2D8
:1028F0000A48806800E0204684B209488068001BCE
:1029000007498860002008730420064908702346A0
:102910002A4682213046FEF7E5FA70BD8409002080
:10292000A4090020DA00002010B503F041F90120CD
:102930000149087010BD00002D01002010B50421D0
:102940000948FFF793FC012803D104210648FFF74B
:102950008BFC01210448FFF789FC012803D10121E8
:102960000148FFF781FC10BD0001004000B585B0B3
:1029700014216846FDF7E6FE0120C0020090012008
:102980000190029003900020049069460548FFF7EB
:1029900051FB03F0A3FB03F061FB03F073FB05B0F5
:1029A00000BD0000000C0040FEB50546002D01D121
:1029B0000220FEBD902002909120019003F08FF83C
:1029C000902003F0AEF8002803D103F09AF803201A
:1029D000EFE7002003F0A5F8002803D103F091F8F9
:1029E0000420E6E703F07BF8912003F09AF8002832
:1029F00003D103F086F80520DBE7012003F03EF861
:102A00000646002003F03AF8074603F07AF8300251
:102A100038430090009804110120C0022040002893
:102A200001D0024804432C800020C2E700F0FFFFE1
:102A3000002805DBC206D20E01219140014A116037
:102A40007047000080E100E010B5002819DB1A4A49
:102A500003231B02D21883089B00D2588307DC0E85
:102A6000FF23A3409A438B071B0E8407E40EA34069
:102A70001A43114B032424021B198408A4001A5181
:102A800018E00E4A03071B0F083B9B089B00D25817
:102A90008307DC0EFF23A3409A438B071B0E84079A
:102AA000E40EA3401A43054B0407240F083CA40876
:102AB000A4001A5110BD000000E100E01CED00E090
:102AC00010B5002819DB1A4A03231B02D218830809
:102AD0009B00D2588307DC0EFF23A3409A438B0749
:102AE0001B0E8407E40EA3401A43114B0324240257
:102AF0001B198408A4001A5118E00E4A03071B0F83
:102B0000083B9B089B00D2588307DC0EFF23A340A1
:102B10009A438B071B0E8407E40EA3401A43054B10
:102B20000407240F083CA408A4001A5110BD00009B
:102B300000E100E01CED00E010B50A4C0AA12046BF
:102B400002F084FF04460BA1204602F07FFF0446FA
:102B500009A1204602F07AFF044620460949484070
:102B600010BD0000C59D1C814465632031382032B2
:102B7000303235002000000031333A31313A333001
:102B80000000000000435452FFB585B005460E46D4
:102B9000174629A42BA00490204603F0D7F90390F0
:102BA0002079202803D160793038C0B207E020793D
:102BB00030380A214843617930394018C0B2029058
:102BC000E07930387D21C9004143207A30386422D1
:102BD00050430918607A30380A2250430918A07A05
:102BE000303808180190002D01D001982860002E7F
:102BF00001D003983070002F01D0029838700898E7
:102C0000002804D0049802F0D6FE089908700E98A7
:102C1000002805D00498C01C02F0CDFE0E99087063
:102C20000F98002805D00498801D02F0C4FE0F996B
:102C3000087009B0F0BD00004465632031382032CF
:102C40003032350031333A31313A33300000000050
:102C5000F0B585B004460D46164600BF1848C76853
:102C6000006904901648406903901548C0680290B6
:102C70001348006901901248406900900298874209
:102C8000ECD1019904988842E8D1009903988842D0
:102C9000E4D1002E03D0F8B202F035FD3070002DE3
:102CA00004D00499C8B202F02EFD2870002C04D084
:102CB0000399C8B202F027FD207005B0F0BD0000F6
:102CC0000010014070B588B0FFF736FF04462F486A
:102CD000006BA04201D108B070BD2D4807900121C2
:102CE00006910591002104910391029102A803A984
:102CF00004AB05AA0091019006A907A8FFF744FFBD
:102D00006846027D017E079803F03AFA054621489D
:102D10001E49403908606846007A02F0FDFC1B49F4
:102D20004039C8606846007B02F0F6FC174940391C
:102D300008616846007C02F0EFFC144940394861A4
:102D40006846007D02F0E8FC104940398861284659
:102D500002F0E2FC0D494039C8616846007E02F08D
:102D6000DBFC0A494039086264210798FDF735FD0C
:102D70000E46304602F0D0FC04494039486200203B
:102D800008600248046300BFA5E70000401001404E
:102D9000E9070000ACACACAC70B506460C46154675
:102DA000601907490968884207D921220521304660
:102DB00000F0ECFA0020C04370BD0020FCE70000EA
:102DC0008401002030B504460A465078C007C00F81
:102DD000002802D00D4B07210BE00D480068C569A3
:102DE000242060432B181879411D1079884200DC9B
:102DF00011790848018004E0481E81B2585C064DF4
:102E000068540029F8D1002030BD0000086200009D
:102E100078010020D80000208407002010B5024669
:102E20000B4608210648018005E0481E81B205488E
:102E3000405C054C60540029F7D1002010BD000013
:102E4000D8000020176200008407002010B5024659
:102E50000B4608210648018005E0481E81B205485E
:102E6000405C054C60540029F7D1002010BD0000E3
:102E7000D80000200F6200008407002070B50546CE
:102E80000E46144632480560207823283FD00EDCD9
:102E90001A2832D006DC002816D0032819D01228B0
:102EA0004ED11BE01B281ED01E2849D120E02A2825
:102EB0003CD004DC25282FD0282841D131E02F2810
:102EC00039D05A283CD11DE02146304600F084FA22
:102ED00070BD2146304600F00DFAF9E72146304634
:102EE000FFF770FFF4E72146304600F06DFAEFE798
:102EF0002146304600F068FAEAE721463046FFF7FF
:102F0000A5FFE5E721463046FFF788FFE0E72146C9
:102F1000304600F0A7F9DBE72146304600F058F9CB
:102F2000D6E72146304600F0D9F8D1E721463046B1
:102F300000F0B6FACCE72146304600F077FAC7E752
:102F400020220521304600F021FA0020C043BFE7CF
:102F500090010020F8B50546244800680121490287
:102F6000884202D22148006801E001204002044664
:102F70001F4801682046FDF730FC86B21C480168F6
:102F80001C480068FDF729FC00901B480068334688
:102F900007691A492846009AB847002807DA11221B
:102FA0000421284600F0F2F90020C043F8BD234672
:102FB000124A822112480068FDF794FF0D4800680C
:102FC00000190C49086009480068001B074908609F
:102FD0000C488068001B0B49886004480068002882
:102FE00002D10320084908700020DFE78C0100208F
:102FF0008001002088010020780100208407002043
:1030000090010020A4090020DA000020F8B5054650
:103010002B48006801214902884202D228480068F2
:1030200001E0012040020446264801682046FDF7E1
:10303000D4FB86B22348016823480068FDF7CDFB26
:103040000090224800683346476921492846009A83
:10305000B847002807DA03220421284600F096F931
:103060000020C043F8BD18480068001916490860E0
:1030700013480068001B1249086016488068001B4E
:10308000144988600E480068002805D100211248C4
:103090000068FFF705FC11E00948006801214902BA
:1030A000884202D20648006801E00120400283B253
:1030B000074A022108480068FDF7AFFE0020D1E76B
:1030C0008C01002080010020880100207801002070
:1030D00084070020A40900209001002070B5054657
:1030E0000C463448007800285BD13348007B8021AF
:1030F0000840802808D03049487B2022052100F074
:1031000045F90020C04370BD2C48006881682846FE
:103110008847002807D03A220221284600F036F9D5
:103120000020C043EFE7A0780006E17809040843D7
:103130002179090208436179084321490860E0794F
:103140000002217A08431F4908600846008882B2BD
:103150001B4801682846FFF71FFE002802DA0020FE
:10316000C043D0E70220134908701548006816498B
:103170000968484312490860124800681249096802
:103180004843104908600C4880680968884208D0A4
:103190000949487B2022052100F0F8F80020C043AF
:1031A000B1E701204002094908802846FFF7D2FE16
:1031B000A9E70000DA00002084090020780100203F
:1031C000880100208C01002080010020D800002010
:1031D00070B504460D461E4800681E4A1E494368E5
:1031E00020469847002807D03A220221204600F0C6
:1031F000CDF80020C04370BD17480068401E000E87
:103200001649087014480068401E0002000E4870FD
:1032100011480088401E0004000E88700E48007897
:10322000401EC8700B480068000E0871094800680D
:103230000002000E4871074800880004000E8871E3
:1032400004480078C8710820054908800020D2E7AA
:1032500078010020800100208401002084070020E4
:10326000D80000207CB505460E46002404E000206E
:103270001D490855601C84B20C2CF8DB1B48006803
:1032800001AA6946436828469847002807D03A2291
:103290000221284600F07AF80020C0437CBD0820B7
:1032A0001149C8700098401E000E08710098401E19
:1032B0000002000E48710098401E0004000E887144
:1032C0000098401EC8710220087201980002000E8A
:1032D000487201980004000E88720198C8720C2090
:1032E000034908800020D9E78407002078010020E6
:1032F000D800002010B50346002204E000201E4C38
:10330000A054501CC2B2122AF8DB70201A4C207054
:103310000C20E07119480078194C2478A04221D083
:1033200016480078C000174C205C134CA07013485E
:103330000078C000134C001940790F4C20730F48DF
:103340000078C0000F4C001900790B4C60730B48DB
:103350000078401C094C207020460078042801D1D8
:10336000002020701220084C20800879122801DCEF
:1033700008792080002010BD840700207C010020F7
:103380007D010020D40A0020D800002030B50C4B6D
:103390001B78DB000B4CE1541302094C2478E40049
:1033A000084D64196360064B1B785B1C044C23704A
:1033B00023461B78042B01D10023237030BD00006D
:1033C0007D010020D40A002002460020014B188015
:1033D00070470000D800002070B504460D46104824
:1033E0008068002808D00E49487B20220521FFF77D
:1033F000CDFF0020C04370BD0A48006881682046A8
:103400008847002807D03A2202212046FFF7BEFF56
:103410000020C043EFE700200349088000BFEAE72F
:103420008409002078010020D800002070B50546EE
:103430000C46607802210840022807D12422052189
:103440002846FFF7A3FF0020C04370BDA078000608
:10345000E1780904084321790902084361790843A6
:103460000C490860E0790002217A08430A490860A3
:103470000846008882B2074801682846FFF78CFC9E
:10348000002802DA0020C043DFE70020034908805B
:1034900000BFDAE7880100208C010020D80000205E
:1034A00070B505460C464448007800287ED1434854
:1034B000007B80210840802808D14049487B202299
:1034C0000521FFF763FF0020C04370BD3C48006842
:1034D000816828468847002807D03A2202212846DA
:1034E000FFF754FF0020C043EFE735480068C1688C
:1034F00028468847002807D0272207212846FFF7BB
:1035000045FF0020C043E0E7A0780006E178090409
:103510000843217909020843617908432949086071
:10352000E0790002217A08432749086008460088AC
:1035300082B2244801682846FFF72EFC002802DAF0
:103540000020C043C1E71F4800682049096848437C
:103550001C4908601C4800681C49096848431A490E
:103560000860164880680968884208D01349487B7B
:1035700020220521FFF70AFF0020C043A5E7012014
:103580000D4908701048006801214902884203D2A1
:103590000D48006802E009E00120400283B20C4AB5
:1035A00002210C480068FDF738FC03E02846FFF7CD
:1035B0002DFD8AE7002088E7DA000020840900203A
:1035C00078010020880100208C010020800100206B
:1035D0008407002090010020014600BF00BF0E4874
:1035E00000690222104040080028F7D000BF0A48B6
:1035F0004069094A516100BF00BF00BF0648006929
:10360000C007C00F0122504050400028F5D000BF35
:1036100001488069C0B27047000801400346002994
:1036200001D0002A02D10020C0437047012040028F
:103630001060402008600020F7E70020704700007D
:1036400001460120014A1070002070472C01002023
:10365000014604480078002801D00020704700206F
:10366000C043FBE72C010020014601207047000009
:10367000F8B50D4616461F460D480078002801D0C3
:10368000002D02D10020C043F8BDF019402802D916
:103690000020C043F8E7002406E062025119301907
:1036A00002F066F9601C84B2BC42F6DB0020EBE756
:1036B0002C01002010B504460020C04310BD0000BE
:1036C0001449096904229143124A11611249096996
:1036D00049084900104A116110490868104908401A
:1036E000022108430902084300BF0C49086000BFDB
:1036F00000BF00BFBFF34F8F00BF00BF00BF30BF90
:1037000000BF00BF00BFBFF36F8F00BF00BF00BF8F
:103710007047000000ED00E000E000E00001004024
:10372000FCF1FFFF28490868010C0140002903D182
:103730004106490E254A516123494868010C414020
:10374000C9B2FF2904D14106490E204A4032916294
:1037500000211E4A916105214906D1601146896AFE
:1037600080221143194A91621949C9680F229204B3
:103770001143174AD1600021144A51621146496A27
:10378000052212021143114A51627D20000100E01E
:10379000401E0028FCD1AA210C4A91631146C96839
:1037A00092041143094AD1600A4909680122114370
:1037B000084A116011464968FE221140054A5160CD
:1037C0000321D2045160704740FBFF1F00020040FC
:1037D000C00C004000A80140C0200749C968C022B1
:1037E00091430143044AD16000BF044800690121AC
:1037F00008430249086170470002004000E000E011
:1038000070B504460D462046CC300921C901401848
:10381000406D2946426820469047002070BD70B533
:1038200004460D46CE20005D022802D0032815D1A3
:1038300000E000BF688801280FD10021D420015189
:103840002046CC300921C9014018406D29468268C4
:1038500020469047204600F056F804E029462046CE
:1038600000F01DF800BF00BF70BDF8B506460C465D
:10387000154600272B46224600213046FDF7CDFA9B
:103880003846F8BDF8B506460C46154600272B46C7
:10389000224600213046FDF725FB3846F8BD70B5BD
:1038A00004460D4680212046FDF7F6FA0021204609
:1038B000FDF7F2FA204601F0ADFA70BD70B504468E
:1038C00000250521CD20015500231A461946204622
:1038D000FDF7A3FA204601F09DFA284670BDF8B521
:1038E00004460E4615460027F8200551F4200551E0
:1038F0000221CD2001552B46324600212046FDF7FE
:10390000F1FA3846F8BD70B5044600250421CD20F3
:10391000015500231A4619462046FDF7E3FA2046D2
:1039200001F078FA284670BD70B505460E46002EA7
:1039300060D12C46D834CD20405D02284FD1A168FB
:10394000E069884217D9A168E069401AE061E87827
:10395000012803D1A168E0684018E060A08B82B222
:103960002846E168FFF78EFF00231A4619462846CD
:10397000FDF753FA33E0A168206AFCF72EFF002917
:1039800015D1A168206A884211D3616A206A8842F1
:103990000DD2002211462846FFF774FF0020606216
:1039A00000231A4619462846FDF737FA17E028463D
:1039B000CC300921C9014018406DC06800280BD0E7
:1039C000CE20405D032807D12846CC300A46801817
:1039D000406DC168284688472846FFF76FFFD22010
:1039E000405D01281BD1284600F0B6FB0021D22003
:1039F000415514E02846CC300921C9014018406DDA
:103A0000406900280BD0CE20405D032807D128460E
:103A1000CC304018406D314642692846904700201E
:103A200070BD70B505460E46002E3DD12846CC30FF
:103A3000992189004418CD20405D032849D1A1680F
:103A4000E069884217D9A168E069401AE061E87826
:103A5000012803D1A168E0684018E060A368E0692C
:103A6000984201D2E06900E0A06882B22846E1688D
:103A7000FFF7FBFE2DE02846CC300921C901401894
:103A8000406D006900280BD0CE20405D032807D18F
:103A90002846CC300A468018406D01692846884780
:103AA0002846FFF730FF14E02846CC300921C90131
:103AB0004018406D806900280BD0CE20405D03285F
:103AC00007D12846CC304018406D314682692846DF
:103AD0009047002070BD01460020704770B5044635
:103AE0000D46E888012804D029462046FFF7D7FE76
:103AF00019E0CE20005D022802D003280DD105E098
:103B0000012209492046FFF7EAFE0BE00122214687
:103B1000CC312046FFF7E3FE04E029462046FFF7BC
:103B2000BEFE00BF00BF70BD3C000020F8B50446DB
:103B30000E46F088009070880012030001F0CEFD60
:103B4000088605112586867C8186A0782146CC31A1
:103B50000923DB01C918C96D0A6869469047054603
:103B600079E0A0782146CC310923DB01C918496DE1
:103B70008A6A694690470546022169702146CC3120
:103B80000922D20189180D6665E0B078030001F0C2
:103B9000A5FD0604101C2834404CA0782146CC31E9
:103BA0000923DB01C918C96D4A6869469047054673
:103BB00040E0A0782146CC310923DB01C918C96D4A
:103BC0008A6869469047054634E0A0782146CC31A2
:103BD0000923DB01C918C96DCA68694690470546C3
:103BE00028E0A0782146CC310923DB01C918C96D32
:103BF0000A696946904705461CE0A0782146CC3109
:103C00000923DB01C918C96D4A6969469047054611
:103C100010E0A0782146CC310923DB01C918C96D19
:103C20008A6969469047054604E031462046FFF719
:103C300036FEF8BD00BF0EE031462046FFF72FFEEE
:103C4000F7E731462046FFF72AFEF2E731462046E5
:103C5000FFF725FEEDE700BF68460088002812D078
:103C6000F08800280FD0F08869460988884202DD74
:103C70006846008800E0F088009069460A88294676
:103C80002046FFF72CFE00BFD3E70146002002E0EC
:103C9000421CD0B2491C0A78002AF9D1704710B5ED
:103CA0000246282048431346CC339924A4001B190C
:103CB000C018008B80B210BD70B504460D46CE20F2
:103CC000005D022802D0032814D100E000BF0120CB
:103CD0000C490860D4200059002805D00846006827
:103CE0000221084307490860022206492046FFF7DF
:103CF000F6FD04E029462046FFF7D1FD00BF00BFD6
:103D000070BD000040000020F8B504460D4617467F
:103D10000026002C1ED02046FFF7B7FF4000801C75
:103D200038803A783046711CCEB22A54032230468D
:103D3000711CCEB22A540AE022783046711CCEB2F1
:103D40002A54641C00223046711CCEB22A542078BA
:103D50000028F1D1F8BDFFB581B0044615461E46D6
:103D60000A9F204600F04AFE2046FFF7B4FE204698
:103D7000CC300921C901401846652046CC30401896
:103D800087652046CC304018C56520460299FDF76E
:103D900041FC2146CC310922D2018918896D08687D
:103DA0008047204600F0FCFD05B0F0BD10B504468C
:103DB0002046CC300922D2018018406D016A20468D
:103DC0008847002010BD10B504462046CC3009229B
:103DD000D2018018406D416A20468847002010BDFE
:103DE00070B504460D4629462046FEF7CDFC00205E
:103DF00070BD70B504460D4629462046FEF7ECFC22
:103E0000002070BD70B504460D4682212046FCF7A7
:103E100071FF02212046FCF76DFF2046FEF700FDF2
:103E2000002070BD02462020088001487047000035
:103E30000801002070B504460D4629462046FFF7CC
:103E4000E1FF0223402282212046FCF7B1FF02233A
:103E5000402219462046FCF7ABFF2046FEF7E6FC61
:103E6000002070BD70B505460C46207860210840E2
:103E700000284CD020287ED16078FE2802D0FF2870
:103E80003DD126E0608800281CD1E088012819D1A6
:103E9000207880210840802814D139490968886930
:103EA00080473849087008460078002804DD012260
:103EB0002846FFF714FD0BE021462846FFF7EFFCEC
:103EC000022070BD21462846FFF7E9FC0220F8E7F2
:103ED0001BE0608800280BD1E088002808D12078FA
:103EE00080210840802803D02846FEF7C3FC05E067
:103EF00021462846FFF7D3FC0220E2E705E02146F1
:103F00002846FFF7CCFC0220DBE700BF34E06078F6
:103F100001280ED00A2802D00B282AD105E0012260
:103F200019492846FFF7DBFC23E0A0781649087002
:103F30001FE021792846FCF729FF21792846FCF764
:103F4000D9FEA08880210840802807D1217902234A
:103F500040222846FCF72CFF06E00CE021790223E2
:103F600040222846FCF724FF21792846FEF7EEFB85
:103F700000BF00BF00E000BF00BF0020A1E70000BD
:103F80007801002028010020290100207CB5054689
:103F90000024284601F04FFA002870D0284601F08E
:103FA00055FA01900198002800D17CBD01980003CA
:103FB000C00F002803D02846FDF71EF904430198DE
:103FC0004003C00F002803D02846FDF77BF80443C8
:103FD00001988007C00F00280AD00020009002211D
:103FE00000988843801C00900098E968486100BFF1
:103FF0000198C00F002803D02846FDF785F9044337
:1040000001980005C00F002803D02846FDF72AFAC2
:10401000044301980007C00F002803D02846FDF78D
:104020000BFA04430198C006C00F002803D02846AD
:10403000FDF7A2F904430198C004C00F002803D083
:104040002846FDF763FA044301988004C00F002856
:1040500003D02846FCF76CFF04430198C002C00F50
:10406000002803D02846FDF723FB04430198800273
:10407000C00F002803D02846FDF730FB044320463C
:1040800093E7000010B50246CC3225235B01D2181D
:10409000127F0A700246CC32174BD21852784A70FF
:1040A0000246CC32D21893780246CC32124C121906
:1040B000D27812029A184A800246CC322346D2188D
:1040C00013790246CC321219527912029A188A8058
:1040D0000246CC322346D21893790246CC321219CA
:1040E000D27912029A18CA80CB88FC22135001237D
:1040F000CD22135410BD0000BC04000010B50446CE
:104100000023102219462046FCF752FE00231022FD
:1041100080212046FCF74CFE0121CE200155A078DD
:104120002246CC320923DB01D218926D51688847B0
:10413000002010BD10B504462146CC310922D20121
:104140008918896D08698047CF20015DCE2001550F
:1041500003210155002010BD01460348026808698B
:1041600042600020704700000400002010B50446A3
:104170002046CC300921C9014018406DC069002893
:1041800007D02046CC300A468018406DC1692046D1
:104190008847002010BD70B504460D46A888002849
:1041A00021D1E88800281ED1A8784606760ECE20B8
:1041B000005D032804D129462046FFF770FB16E076
:1041C000D020065531462046FCF752FE2046FFF728
:1041D0009AFB002E03D00221CE20015507E00121D9
:1041E000CE20015503E029462046FFF758FB70BD5D
:1041F00070B504460D462046CC300921C90140184F
:10420000406D29460268204690472146CC3109225C
:10421000D2018918896D88688047002070BD000030
:1042200070B504460D46A8783049087008460078F5
:10423000012804DD29462046FFF731FB54E0CE205B
:10424000005D022802D0032848D117E027480078F3
:1042500000280FD025480178CC2001550321CE201D
:104260000155224801782046FFF7C2FF2046FFF79C
:104270004AFB02E02046FFF746FB34E01B4800788B
:1042800000280FD10221CE20015518480178CC20FA
:104290000155164801782046FFF7B2FA2046FFF78D
:1042A00032FB1AE0CC20005D10490978884211D019
:1042B000CC20015D2046FFF7A3FA0C480178CC2002
:1042C00001550A4801782046FFF792FF2046FFF784
:1042D0001AFB02E02046FFF716FB04E029462046C1
:1042E000FFF7DDFA00BF00BF70BD000044000020F2
:1042F000F8B504460D4600266888012810D1012132
:10430000D42001512046CC300921C9014018406D0C
:1043100029468268204690472046FFF7F4FA3FE09E
:10432000688802283CD12879002839D12069406862
:104330000090A8880612330001F0D0F90622040A82
:1043400010161C22702100988843103000901DE048
:104350007021009888432030009017E07021009869
:1043600088433030009011E070210098884340303D
:1043700000900BE07021009888435030009005E0D9
:104380007021009888431030009000BF00BF05489E
:10439000009901600121D22001552046FFF7B3FAB0
:1043A000F8BD0000040000201CB504466946204604
:1043B000FFF768FE68460078C006C00E002804D0EB
:1043C000012807D002280FD109E06946204600F0F5
:1043D00017F812E06946204600F01AF90DE0694628
:1043E000204600F047F808E0684600788022104038
:1043F00001462046FCF750FD00BF00BF00201CBD59
:1044000070B505460C4600266078030001F066F999
:104410000A1A24291F290B06291510292146284686
:10442000FFF784FB22E021462846FFF7B4FE1DE09B
:1044300021462846FFF7F4FE18E021462846FFF7FC
:104440004DFB13E021462846FFF736FC0EE02146DF
:104450002846FFF74DFF09E021462846FFF7DFF920
:1044600004E021462846FFF71AFA00BF00BF304695
:1044700070BD0000F8B505460E4600273479307847
:104480006021084020280BD12846CC300921C901E1
:104490004018406D31468268284690473846F8BD3E
:1044A0007078002863D0012831D003286FD1CE2046
:1044B000405D022802D0032822D108E0002C05D05C
:1044C000802C03D021462846FCF7E6FC1DE07088CE
:1044D000002807D1002C05D0802C03D02146284687
:1044E000FCF7DAFC2846CC300921C9014018406DA0
:1044F00031468268284690472846FFF704FA04E0D0
:1045000031462846FFF7CBF900BF00BF7AE0CE2046
:10451000405D022802D0032822D108E0002C05D0FB
:10452000802C03D021462846FCF7B6FC1DE070889D
:10453000002814D1002C0FD0802C0DD02146284605
:10454000FCF7FEFB2846CC300921C9014018406D1C
:1045500031468268284690472846FFF7D4F904E0A0
:1045600031462846FFF79BF900BF00BF4AE0CE2046
:10457000405D022802D003283CD109E0002C05D080
:10458000802C03D021462846FCF786FC37E038E033
:1045900080202040802811D16106490E2820414307
:1045A0002846D83008188078002803D00120174901
:1045B000086019E000201549086015E080202040BF
:1045C000002811D1282060432946CC31992292003D
:1045D000891840188078002803D001200B49086012
:1045E00002E0002009490860022208492846FFF736
:1045F00076F904E031462846FFF751F900BF00BFC5
:1046000000E000BF00BF384649E700003800002046
:1046100070B504460D460026CE20005D03281AD151
:104620002879012812DC2046CC300921C901401824
:10463000406D2946826820469047E888002809D1C5
:10464000002E07D12046FFF75EF903E029462046F9
:10465000FFF725F904E029462046FFF720F900BFBF
:1046600000BF304670BD10B50446CE20015DCF209E
:1046700001550421CE2001552146CC310922D20119
:104680008918896DC8688047002010BD70B505463F
:104690000C462246024903A0FFF736FB004870BDD6
:1046A000440700204D534320436F6E666967000046
:1046B000704770470246122008800148704700008A
:1046C00064000020704770477047704770470000D3
:1046D00070B505460C462246024903A0FFF714FBBD
:1046E000004870BD440700204D534320496E746557
:1046F000726661636500000002460420088001487C
:10470000704700007600002070B505460C46224632
:10471000024903A0FFF7F8FA004870BD44070020E3
:10472000464D53480000000070B505460C46224631
:10473000024903A0FFF7E8FA004870BD44070020D3
:104740004D6173732053746F7261676520696E20C9
:104750004653204D6F64650070B505460C464220F7
:104760002080FDF747FB014870BD00007A00002063
:1047700030B58BB000203021402203465A4CA4694A
:104780005A4D2C4015040D431D4305432C43564DF3
:10479000AC6100BF00BF284680690121084329465B
:1047A000886100BF00BF00BF4F488069802108407A
:1047B000C0090028F7D002204D49096889088900FE
:1047C00001434B4A116000BF00204749C9680722D6
:1047D000120291430143444AD16000BF10131146B5
:1047E000C96807221204914301433F4AD16000BFC8
:1047F000C0001146C9680722D204914301433A4AD6
:10480000D16000BF02201146C968C908C900014330
:10481000D16000BF37483849086000200A901F2047
:104820000790364808900120099007A93448FDF701
:104830001FFB00BF01203249086100BF00BF0846CE
:10484000C068012108432E49C86000BF1820002815
:1048500005DBC206D20E012191402A4A116000BF39
:1048600002211820FEF7F0F81820002806DBC20607
:10487000D20E01219140234A803A116000BF0120ED
:1048800080020290002003900120059002A91E489A
:10489000FDF7D0FB01200003029002A91A48403026
:1048A000FDF7C8FB0120C002029002A91648C030E3
:1048B000FDF7C0FB4020029002A913488030FDF7AD
:1048C000B9FB1248124B134A012100901248FFF71E
:1048D00042FA00BF0A4800680121084308490860FD
:1048E00000BF0BB030BD00000002004085FF80FF1C
:1048F000001000400090D00300000020E7030000FB
:1049000000B4014080E100E0000C0040BC00002049
:10491000DC000020480000209401002010B51B4856
:10492000806A022108431949886218484030406B68
:10493000042108431549403148630846406B102163
:1049400008431249403148630846406B012108433F
:104950000E49403148630846406B082188430B49A3
:10496000403148630846406B022188430749403183
:1049700048630846806B89150843044940318863C1
:104980007D20C000FCF728FF10BD000000020040A1
:1049900010B50248FFF7FAFA10BD0000940100209C
:1049A00010B504461220002805DBC206D20E0121F4
:1049B00091400F4A116000BF1220FEF739F8022122
:1049C0001220FEF77DF81220002805DBC206D20E69
:1049D00001219140074A116000BF074800F0FBFD2C
:1049E0007D20C00000F018F8034800F0E8FD10BD7D
:1049F00080E200E000E100E09401002010B50446F0
:104A0000FFF78CFF0122920200210248FBF773FEA0
:104A100010BD00000000025010B504467D21C90001
:104A20006143084600F001F810BD10B50446204669
:104A3000FCF7DEFE10BD70B504460025204600F0F0
:104A4000C1F81420FFF7E8FF284670BD70B586B0A6
:104A50000446002600200590049003900290002157
:104A6000C820005901602069006804900321C90230
:104A7000049888430490049920690160E07A012831
:104A800014D10321204600F0C7FC4020E1684862B1
:104A9000039880B201210905401803900398000C87
:104AA0000004403003900398E1688862102120469A
:104AB00000F07CFC204600F053FC002120690161DD
:104AC00020694161491E2069816100212069C1611D
:104AD00000252CE0A90020461430405800680590BD
:104AE0000598C00F00280DD00020059001218907EE
:104AF0000598884340180590C910059888434018C8
:104B0000059001E000200590AA002046143080584E
:104B1000059901600021AA002046143080580161E7
:104B2000FF21AA0020461430805881606D1C6078F7
:104B3000A842CFD800252CE0A9002046503040588C
:104B4000006801900198C00F00280DD0002001904E
:104B5000012189070198884340180190C9100198E4
:104B600088434018019001E000200190AA002046EF
:104B700050308058019901600021AA002046503031
:104B800080580161FF21AA00204650308058816082
:104B90006D1C6078A842CFD800200290FF2101311F
:104BA000029888434018029020690069029988435E
:104BB000084321690861204600F076FB304606B0C4
:104BC00070BD0000F8B504460026002500200090C6
:104BD00000BF0320FFF729FFE06800690090681C10
:104BE00005461349884201D90020F8BD0098C00F3E
:104BF0000028EED00025009840084000401C00909E
:104C00000098E168086100BFE06800690090681CD6
:104C100005460749884200D904E00098C007C00F44
:104C20000028F1D100BF0320FFF7FFFE3046DCE78C
:104C3000400D030008B50146002000220092009AB2
:104C4000520852000092CA689268009B1A43CB68CF
:104C50009A6008BD0EB501460020002200920A6944
:104C6000926802924A6912680192029A5207920F60
:104C7000002A06D0012A05D0022A09D0032A0DD124
:104C800001E000BF00BF019AD20AD20201920AE0FD
:104C9000019AD20AD202D21C019204E0019AD20AED
:104CA000D202019200BF00BF019B4A691360FF233B
:104CB0000133009A9A43D21800920A695268009B05
:104CC0009A431A430B695A600EBDFCB50246002098
:104CD00000240025019500954D78012D4FD1536991
:104CE0001D6801951D6900954D69002D0AD1009D33
:104CF000ED09ED0100950126F604009DB543AD19BF
:104D000000951CE08E684D69B5420AD98D684D61E9
:104D1000009DED09ED010E7A7606760E354300957D
:104D200007E0009DED09ED010E7D7606760E354318
:104D300000950126F604009DB543AD190095009D30
:104D40001D610126B606019DB543AD190195019D72
:104D50006D006D087601AD190195019D1D60D57836
:104D6000002D56D14D69002D53D00E780125B54048
:104D70002C4315696D6B25431669756349E00D7801
:104D8000AE0015465035AD592D6801950D78AE0031
:104D900015465035AD592D6900954D69002D0ED140
:104DA000009DED09ED010E7A7606760E35430095ED
:104DB0000126F604009DB543AD1900950FE08D68FE
:104DC0004D61009DED09ED010E7A7606760E3543B4
:104DD00000950126F604009DB543AD1900950D78A8
:104DE000AF0015465035ED59009E2E610126B606DE
:104DF000019DB543AD190195019D6D006D087601CA
:104E0000AD1901950D78AF0015465035ED59019E4D
:104E10002E60FCBD08B500210091032252070099C5
:104E20009143891800910122D20400999143891875
:104E300000910099C909C90118310091009A016DCA
:104E40000A6108BD7CB5024600200024019400944C
:104E50004C78012C0ED10C78A500144614346359FB
:104E6000009C240C24040E780125B540ADB22C43DF
:104E700000940EE00C78A500144650346359009C51
:104E8000A4B20E780125B5402D042D0C2D042C4321
:104E900000941C680194019C2404E40F002C2AD186
:104EA000019CE40AE4020D896D056D0D2C4301940B
:104EB0000325AD04019CAC43CD78AD040326B604B4
:104EC00035402C4301940F25AD05019CAC43CD88A2
:104ED000AD050F26B60535402C43019401252D075D
:104EE000019CAC43641901946D13019CAC4364199B
:104EF0000194019C1C601469E469009D2C431569B0
:104F0000EC617CBD38B503460020002400944C7849
:104F1000012C05D10C78A5001C461434625904E01C
:104F20000C78A5001C465034625914680094012581
:104F30006D05009CAC430094CC78032C02D0CC7857
:104F4000022C05D101252D07009CAC436419009467
:104F5000009C146038BD3CB5024600204B78012B04
:104F600022D10B789C00134614331B591B68019304
:104F7000019BDB0F002B0DD0002301930124A4071C
:104F8000019BA3431B190193E410019BA3431B192D
:104F9000019301E0002301930B789D001346143325
:104FA0005B59019C1C6022E00B789C001346503337
:104FB0001B591B680093009BDB0F002B0DD00023B7
:104FC00000930124A407009BA3431B190093E41042
:104FD000009BA3431B19009301E0002300930B786F
:104FE0009D00134650335B59009C1C6000BF3CBDC4
:104FF00038B503460A460020002400945478012C5A
:1050000019D11478A5001C46143461590C68009419
:10501000009CE40F002C05D00125AD07009CAC439B
:105020006419009401256D05009CAC43641900943B
:10503000009C0C600EE01478A5001C4650346159A9
:105040000C68009401256D05009CAC436419009424
:10505000009C0C6038BD0000F0B585B005460C46DC
:1050600000200390002602900190607801287DD1F5
:10507000207881002846143040580068029020783B
:10508000810028461430405800690190606900286A
:105090000BD10198C00CC0040190764901980840DA
:1050A0000121C9044018019023E00198C00CC004FC
:1050B00061694903490B084301906269521EA36864
:1050C000D0181946FBF789FBC0046A49C943084058
:1050D0000746C9430198084038430190E078012809
:1050E00007D1032149070198884301214907401846
:1050F000019020788200284614308058019901617F
:10510000E07801280BD06069002808D021780120C0
:10511000884006462869406B304329694863E07837
:10512000012814D12869806800900098C005C00F3C
:10513000002806D1012149070298884340180290AF
:1051400005E00121090702988843401802900121D7
:10515000890602988843401802900298400040084F
:105160004901401802902078820000E00FE02846B4
:105170001430805802990160E078012876D1A08A25
:1051800083B222782846E16800F0F0F96EE02078DA
:1051900081002846503040580068029020788100F5
:1051A00028465030405800690190606900280FD1AE
:1051B0000198C00CC004A1684903490B0843019041
:1051C0002C49019808400121C9044018019020E0B1
:1051D000A268521E63699818A168FBF7FEFAC00422
:1051E0002449C94308400746C94301980840384349
:1051F00001900198C000800DA16848434003400B16
:105200000199C90CC9040843019001984003400B5F
:1052100060612078820028465030805801990161F1
:10522000E07801280FD16079002806D001214907D4
:10523000029888434018029005E00121090702986E
:10524000884340180290012189060298884340183B
:1052500002900298400040084901401802902078CE
:10526000820028465030805802990160039805B0AA
:10527000F0BD0000FFFF07E008B5002100910949DB
:10528000C26851610099490049080122D207891872
:105290000091120D00999143891800910099C268FC
:1052A000916108BDFFFFFFBF38B50446002500200F
:1052B0000090E16888612048E16848612046FFF776
:1052C000DBFFE078002804D11021009888431030DB
:1052D00000900121C90200988843401800904900BD
:1052E000009888434018009049000098884340186F
:1052F00000904901009888434018009049000098A8
:105300008843401800900821009888430830009096
:105310004904009888434018009049000098884349
:1053200040180090E0688069009988430843E1686C
:105330008861284638BD0000FFFFFFBF08B5014661
:10534000002000220092009A52085200521C009243
:10535000CA689268009B1A43CB689A6008BD000037
:10536000F8B5044600250026002000900098102182
:105370008843103000900098E168086100BFE06841
:1053800000690090701C06460749884200D904E075
:105390000098C006C00F0028F1D100BF0320FFF71E
:1053A00044FB2846F8BD0000400D0300F8B5044654
:1053B0000D460026002700200090009820218843F9
:1053C0002030009000981F2189018843A9011F22E5
:1053D00092011140084300900098E168086100BF05
:1053E000E06800690090781C07460749884200D9A8
:1053F00004E000988006C00F0028F1D100BF032010
:10540000FFF713FB3046F8BD400D03000146C868A6
:105410004069C007C00F704708B502691268009262
:10542000009A920892008B079B0F1A430092009BF0
:105430000269136008BD00B502461046FFF7E6FF9B
:10544000012801D0012000BD0020FCE7014600201A
:10545000CA685069CA689269104070470146086975
:1054600082690869C069024090B2704702461069BB
:1054700081691069C0690140080C704710B5024687
:105480008C00134650331B59986813695B691840A8
:1054900010BDFEB505460C4616460027F01CC11788
:1054A000890F0918891001918C204059009000BF84
:1054B00006E0009908682146FBF787F9241D7F1C48
:1054C00001988742F5D32046FEBDF0B502460D4651
:1054D000002300200024D470012494704024948080
:1054E00005231B070124D47208241470042454706B
:1054F0009C15D48002241472D360A4021E19166174
:10550000002112E04C01092636029E19A6198F00CF
:1055100014461434E6514C010B2636029E19A61986
:105520008F0014465034E651491C54788C42E9D817
:10553000002109E00C03012636039E19A6198F00ED
:1055400014468C34E651491C14788C42F2D8072456
:1055500064021E19C824A650F0BD70B505460E465B
:1055600000243220FFF758FA204670BDFFB583B003
:1055700004460D4616460020029001900090E07807
:10558000002819D10699C81CC117890F091889105C
:105590000191B10020468C3047580020009007E070
:1055A0002846FBF707F938602D1D0098401C009035
:1055B000019900988842F3D3029807B0F0BD08B56E
:1055C0000169496800910222009991430091009A73
:1055D00001694A6008BD08B5016949680091022265
:1055E00000999143891C0091009A01694A6008BDA5
:1055F00010B5FBF7D5FAFEF7EFF8FCF7C7FFFCF79D
:10560000D7FB10BD00B585B0FCF74AFE0120C007EE
:10561000FCF750FE042000900020019002900390BF
:10562000049069460A48FCF705FD00210848C0308F
:10563000FCF7F7FDFF22013204210548C030FCF7DA
:10564000FAFD04210248C030FCF7EAFC05B000BDB9
:10565000400C004000B585B014216846FBF772F895
:10566000FCF71EFE0120C007FCF724FE0120C0034A
:105670000090002001900290039004906946094830
:10568000FCF7D8FC00210848FCF7CBFDFF220132D3
:1056900001210548FCF7CFFD01210348FCF7C0FCC0
:1056A00005B000BD000C0040000D0040F8B582B20E
:1056B0008BB2040C0D0C10465843002126465E4365
:1056C000370C36048019794116466E43370C360480
:1056D0008019794126466E438919F8BD30B4744665
:1056E000641E2578641CAB4204D3635D5B00E31841
:1056F00030BC18471D46F8E730380A2801D201208F
:10570000704700207047014608110A2250430A07DB
:10571000120F8018C0B2704770B504460A212046A7
:10572000FBF75BF805010A212046FBF756F80D430D
:10573000E8B270BD10B5012149030848FCF762FDCD
:10574000FF20F530FCF748F8012149030348FCF736
:105750004FFDFF20F530FCF73FF810BD000C004076
:1057600010B5012189030848FCF74CFDFF20F530F6
:10577000FCF732F8012189030348FCF739FDFF20CB
:10578000F530FCF729F810BD000C004010B50446B8
:10579000012149022046FAF7D3FFEB2020703C207C
:1057A00060709020A07008222BA1E01CFAF762FF25
:1057B0000121490220460B3000F0EBF90120607313
:1057C000012120460E3000F0E4F90220207410215F
:1057D0002046113000F0DDF940212046133000F062
:1057E000D8F9F820607501212046163000F0D1F973
:1057F0003F212046183000F0CCF9FF2120461A3016
:1058000000F0C7F9002120461C3000F0C7F9002144
:105810002046203000F0C2F98021242001552921A2
:10582000262001550F492046273000F0B7F90B22FA
:105830000DA120462B30FAF71DFF08220EA12046AD
:105840003630FAF717FF5521FF20FF300155AA2106
:10585000401C015510BD00004D53444F53352E30B0
:105860000000000017122520464D3333464C4153AB
:1058700048202020000000004641543132202020E2
:105880000000000070B50446012149022046FAF7E5
:1058900057FF0B480068002810D009480068012114
:1058A0004902884201D9084601E0054800680546DA
:1058B0002A4604492046FAF7DDFE00BF70BD00000D
:1058C00030010020B409002010B50446012149022E
:1058D0002046FAF735FFF8202070FF206070A07096
:1058E000E0700F2020710020607110BD3EB50446AD
:1058F000012149022046FAF723FF0B2213A120467B
:10590000FAF7B8FE0820E07214480078002801D0A9
:10591000124800E012A005466946284600F0CAFA7F
:105920000B22694620462030FAF7A4FE20212B20C6
:105930000155022120463A3000F02BF90B4801684E
:1059400020463C3000F02AF93EBD0000464D33337E
:10595000464C41534820202000000000B40A00209B
:1059600066696C652E7478740000000030010020B8
:1059700070B504460D46002C03D12846FFF706FFFC
:1059800018E0012C01D0022C03D12846FFF79CFF20
:1059900010E0032C03D12846FFF7A8FF0AE0042CEF
:1059A00003D12846FFF76EFF04E001214902284693
:1059B000FAF7C6FE70BD0146087830380A22504317
:1059C0004A78303A8018C0B270470146086A002809
:1059D00008D0FF220132086A904203D8086A401CAE
:1059E000002801D1002070470878FF2802D00878ED
:1059F000002801D10020F6E72820405CFF2801D1D3
:105A00000020F0E70120EEE70146002900D17047B1
:105A1000086A002808D0FF220132086A904203D8A1
:105A2000086A401C002801D10020F0E70878FF2810
:105A300002D00878002801D10020E8E72820405C47
:105A4000FF2801D10020E2E70120E0E704E00A7826
:105A5000491C5040024A50430A78002AF7D1704747
:105A60009301000108B50020009003E000BF0098FA
:105A7000401C009000987828F8DB08BD70B50546FA
:105A8000002400F009FB002610E06006040E00F080
:105A9000E5FAFFF7E7FF00F039FB002801D001200D
:105AA000044300F0E5FAFFF7DDFF761C082EECDB7F
:105AB00000F014FB002D02D000F006FB01E000F026
:105AC000E1FAFFF7CFFF00F0C9FAFFF7CBFF00F0D4
:105AD000CFFAFFF7C7FF00F0D5FA204670BD10B52A
